:020000040800F2
:10000000002000106519000885190008E516000891
:10001000891900088D1900089119000800000000D6
:10002000000000000000000000000000951900081A
:1000300099190008000000009D190008E716000843
:10004000A1190008A5190008A9190008AD19000890
:10005000B1190008B5190008B9190008BD19000840
:10006000C1190008C5190008C9190008CD190008F0
:10007000D1190008D5190008D9190008DD190008A0
:10008000E1190008E5190008E9190008ED19000850
:10009000F1190008F5190008F9190008FD19000800
:1000A000011A0008051A0008091A00080D1A0008AC
:1000B000CB170008111A0008151A0008191A0008B1
:1000C0001D1A0008211A0008251A0008291A00081C
:1000D0002D1A0008311A00080B170008351A0008FD
:1000E000391A00083D1A0008411A0008451A00088C
:1000F000491A00084D1A0008511A0008551A00083C
:10010000591A00085D1A0008EF170008611A000864
:10011000651A0008691A0008111800082F1800084D
:100120006D1A0008711A0008751A0008791A00087B
:100130007D1A0008811A0008851A0008891A00082B
:100140008D1A0008911A0008951A0008991A0008DB
:100150009D1A0008A11A0008A51A0008A91A00088B
:10016000AD1A0008B11A0008B51A0008B91A00083B
:10017000BD1A0008C11A0008C51A0008C91A0008EB
:10018000CD1A0008D11A000810B5DFF88844DFF84E
:100190008804017889B2200000F0CCF9002814D03E
:1001A0002488DFF87804210089B20268914205D0E2
:1001B000210089B2016000F009F806E0DFF8600470
:1001C0000188DFF8600400F093FA10BD2DE9F047D4
:1001D000DFF84004057946794FF48071807901FB9E
:1001E00006062800C0B2012833D0022800F087801C
:1001F000032800F0D580042800F02381412802D094
:10020000502806D06DE140F20111412000F0D1F9F3
:1002100067E100F0CAFA002805D04FF6FF715020C0
:1002200000F0C7F914E042F21071502000F0C1F95B
:100230000020DFF8F41308800020DFF8F0130880B6
:100240000020DFF8EC1308800020DFF8E8130880B6
:1002500047E100F0AAFA002805D04FF6FF717020A0
:1002600000F0A7F94AE0DFF8BC1370200871012004
:10027000487101208871DFF8B07342F21074388839
:10028000201A320092B290421FDBB0461FFA88F863
:10029000DFF8A4033A8800EB020911F1070A42468D
:1002A0004946504600F0AEFADFF874130A88F01C95
:1002B00082180A803888301838803888A0421BD1CC
:1002C0000020388000F074FA16E03888241ADFF82D
:1002D00068033A8800EB020811F107092200414641
:1002E000484600F08FFACE490A88F01C82180A802E
:1002F0000020388000F05CFA00F0F5F8F1E000F042
:1003000054FA002805D04FF6FF71702000F051F923
:1003100045E0C449702008710220487102208871AC
:10032000C24F42F210743888201A320092B29042C2
:100330001DDBB0461FFA88F8C0483A8800EB020976
:1003400011F1070A42464946504600F05BFAB449AB
:100350000A88F01C82180A8038883018388038885B
:10036000A0421AD10020388000F022FA15E0388827
:10037000241AB2483A8800EB020811F1070922005A
:100380004146484600F03EFAA5490A88F01C82180A
:100390000A800020388000F00BFA00F0A4F8A0E0FA
:1003A00000F003FA002805D04FF6FF71702000F02E
:1003B00000F945E09B497020087103204871032033
:1003C00088719B4F42F210743888201A320092B222
:1003D00090421DDBB0461FFA88F899483A8800EB36
:1003E000020911F1070A42464946504600F00AFA4E
:1003F0008B490A88F01C82180A80388830183880A7
:100400003888A0421AD10020388000F0D1F915E0D8
:100410003888241A8A483A8800EB020811F1070943
:1004200022004146484600F0EDF97D490A88F01C5B
:1004300082180A800020388000F0BAF900F053F8E2
:100440004FE000F0B2F9002805D04FF6FF717020A0
:1004500000F0AFF845E0734970200871042048713E
:1004600004208871734F42F210743888201A3200C9
:1004700092B290421DDBB0461FFA88F871483A8864
:1004800000EB020911F1070A42464946504600F0C6
:10049000B9F963490A88F01C82180A803888301834
:1004A00038803888A0421AD10020388000F080F9C6
:1004B00015E03888241A63483A8800EB020811F1E5
:1004C000070922004146484600F09CF954490A8831
:1004D000F01C82180A800020388000F069F900F0D2
:1004E00002F8BDE8F0872DE9FC414E4C4B4800680E
:1004F00020804B4D288860802888001D288029880E
:10050000200000F036F8ADF8000002266F4628887B
:1005100004EB000832003900404600F073F92888E7
:10052000801C28802988200000F0E2F80020288024
:10053000BDE8F38138B504000D00280080B203281F
:1005400001DA002014E0A91E89B2200000F011F8A1
:10055000ADF800000222280080B22044811E6846C7
:1005600000F0A4F9002801D1012000E00020C0B271
:1005700032BD30B403004FF6FF7000240A0092B27F
:10058000944213DA1A5D50400022082A0CDAC5079B
:1005900006D580B205004AF2010090EA550001E05C
:1005A00080B24008521CF0E7641CE7E780B230BC20
:1005B000704738B504000D001A480471290089B24B
:1005C000090A4171857116480188C91C0180FFF72D
:1005D0008AFF31BD01201C490870704700201A496C
:1005E000087070471848007870472DE9F041040002
:1005F0000D002E00F6B22700DFF818803200390017
:10060000404600F0FFF8FFF7E5FF03480570BDE83E
:10061000F0810000ACF2002037F300201000002031
:100620002AF300201800002022F3002024F30020E9
:1006300026F3002028F3002008560020187D002013
:1006400028A4002038CB002036F3002038B5040061
:100650002000C0B2C02806D0DB2813D0DC2815D07B
:10066000DD2822D030E01F4D2888002806D02988B8
:10067000C9B21D48FFF7B9FF0020288000201B49A0
:1006800008702EE00120194908702AE017490878FF
:1006900001280AD11348C022134B05885A550288F5
:1006A000521C0280002008701BE0104908780128C5
:1006B0000AD10C48DB220C4B05885A550288521C83
:1006C0000280002008700CE006480188642905DAE1
:1006D000054902888C540188491C01800020034987
:1006E000087031BD20F3002048F2002034F30020D0
:1006F000F8B506000C00C02000F090F9002520009D
:1007000080B2854219DA3778761C3800C0B2C0282A
:1007100004D1DB2000F082F9DC2007003800C0B2F1
:10072000DB2804D1DB2000F079F9DD200700380058
:10073000C0B200F073F96D1CE1E7C02000F06EF963
:10074000F1BD30B4002513E050F8042BD30744BFAB
:10075000A9F101039A18091F042942F8045BFAD28F
:1007600013468C0744BF15809B1CC90748BF1D70EA
:1007700050F8041B0029E7D130BC704780B5002039
:1007800000F0B9F900F096FA00F026FB00F03CFA10
:1007900000F0E5F800F04FFBFFF724FF0028F9D048
:1007A000FFF7F2FCFFF71AFFF4E7114800787047F3
:1007B00001200F490870704700200D4908707047EC
:1007C00010B50024002042F2107188420DDA094968
:1007D0000C54641C211D084A1154611D074A115410
:1007E000611D074A1154401CEDE7FFF7E5FF10BDFE
:1007F0001400002008560020187D002028A40020A6
:1008000038CB002062B38B0708D0521E11F8013B91
:1008100000F8013B00F024808B07F6D1830740F0FD
:10082000208000BF103A07D330B4B1E83810103A36
:10083000A0E83810F9D230BC530724BFB1E8081043
:10084000A0E8081044BF51F8043B40F8043BD2072D
:1008500024BF31F8022B20F8022B44BF0B78037021
:100860007047121F17D35B0009D151F8043B20F8E1
:10087000023B1B0C121F20F8023BF6D20BE051F892
:10088000043B00F8013B1B0A20F8023B1B0C121F23
:1008900000F8013BF3D238BF121D521E24BF11F8DD
:1008A000013B00F8013BF8D870470000030000202E
:1008B00013F0030F09D0521E22BF13F8010B11F8D9
:1008C00001CBB0EB0C00F3D0704711F0030F14D143
:1008D000121F22BF53F8040B51F804CB6045F7D028
:1008E000121D0AD200BA9CFA8CFCB0EB0C0038BF87
:1008F0006FF0000088BF01207047521E22BF13F81E
:10090000010B11F801CBB0EB0C00F6D0521C08BF64
:1009100010467047010049B2002909D4012210F0A5
:100920001F018A40594903005BB25B0941F823204B
:10093000704710B4020052B2002A05D40A01544B89
:10094000040064B21A5508E00A01524B040064B274
:1009500014F00F04234403F8042C10BC704710B5A6
:1009600086B00121082000F029FB01215FF400304E
:1009700000F032FB2020009002208DF804000020BF
:100980008DF8060001208DF8070002208DF8050083
:10099000414C6946200000F079FB40200090002087
:1009A0008DF8070002208DF804006946200000F051
:1009B0006DFB07220521200000F0CFFB0722062156
:1009C000200000F0CAFB5FF4E13002900020ADF897
:1009D00014000C20ADF812000020ADF8100000202B
:1009E000ADF80E000020ADF80C002C4C02A9200040
:1009F00000F0E4FB01212620FFF79BFF2620FFF7F4
:100A000089FF012240F22551200000F060FC012105
:100A1000200000F045FC002006B010BD2DE9F0419B
:100A2000040042F6F8251E4E3088A842F9D01B4F2C
:100A300040F2266800224146380000F048FC308829
:100A4000002805D18021380000F079FC00280FD162
:100A50001448154902888C540188491C018001887A
:100A6000A94201D1002101803088401C308005E07E
:100A70002100C9B289B2380000F021FC01224146B0
:100A8000380000F024FCBDE8F081000000E100E047
:100A900000E400E018ED00E0000C024000440040DB
:100AA00032F300202EF30020102B0020010049B269
:100AB000002909D4012210F01F018A407449030063
:100AC0005BB25B0941F82320704710B4020052B2B8
:100AD000002A05D40A016F4B040064B21A5508E0DD
:100AE0000A016D4B040064B214F00F04234403F8B0
:100AF000042C10BC704738B58AB004000020674948
:100B000008600121092000F067FA0021092000F0A7
:100B100071FA06A800F0B0F95FF0804000F0F1FC37
:100B20002920ADF800000020ADF8020044F6206056
:100B300001900020ADF8080000208DF80A006946F9
:100B40005FF0804000F052FC012201215FF0804004
:100B500000F0AAFC01215FF0804000F0B1FC01210F
:100B60001C20FFF7B2FF1C20FFF7A0FF06A800F033
:100B700083F94B4D280000F0C4FC5320ADF8000071
:100B80000020ADF80200642001900020ADF80800BC
:100B900000208DF80A006946280000F027FC012299
:100BA0000121280000F080FC0121280000F088FCD1
:100BB00001213220FFF789FF3220FFF777FF012163
:100BC000280000F054FC0121102000F005FA03A8D1
:100BD00000F041FC4AF20F40ADF80C004FF4FA600F
:100BE0000490304D03A9280000F000FC01220121EF
:100BF000280000F059FC0121280000F038FC3620C4
:100C0000FFF754FF0BB030BD1CB5274800680090BB
:100C1000012000F02AF801215FF0805000F0DCF99B
:100C2000012000F075FC012000F012F900244120A1
:100C300000F0EEF9002808D11C480068C003F6D582
:100C4000641C072CF3DB01200EE04FF4807000F0F1
:100C500094F9012000F0ACF900F08EFC6946002008
:100C600000F0B3FC0021002016BD18B585B00400CB
:100C700001A800F001F90D48016800910299C90826
:100C8000B1FBF4F10A4A11600121016006B010BD08
:100C900000E100E000E400E018ED00E01CF30020BB
:100CA000000C0040001000408019000810E000E037
:100CB00014E000E080B53C48016851F47001016027
:100CC0003A49086850F0010008600020384A106076
:100CD0000A68384802400A603748384A1060086895
:100CE00030F48020086000203549086000F005F8E5
:100CF0005FF000603349086001BD82B000200190C0
:100D0000002000902949086850F480300860086885
:100D100010F4003000900198401C019000980028C9
:100D200003D10198B0F5A04FF1D10868800302D536
:100D30000120009001E000200090009801282FD1B0
:100D40002148026852F0805202602048026852F442
:100D500040420260164802680260026852F4004293
:100D60000260026852F4A0520260194A134B1A60E2
:100D70000A6852F080720A600A689201FCD540F25B
:100D80000571144A116001688908890001600168D1
:100D900051F002010160016811F00C010829FAD13B
:100DA00002B070470000000088ED00E0003802400B
:100DB00008380240FFFFF6FE1030002404380240DD
:100DC0000C38024008ED00E040380240007000405E
:100DD0000C544007003C0240E0B50121042000F023
:100DE000EDF84FF40150009001208DF80400002030
:100DF0008DF8060001208DF8070002208DF805000F
:100E00006946104800F042F90121082000F0D6F8A8
:100E10001F20009001208DF8040000208DF80600AE
:100E200001208DF8070002208DF80500694606486C
:100E300000F02CF907BD0548016891F400510160EC
:100E40007047000000080240000C024014080240F5
:100E5000DFF8101200220A7000220A700200D2B2DB
:100E6000012A02D0042A03D005E001220A7002E020
:100E700005220A70FFE770472DE9F04F01000022BC
:100E800000230024022500200226DFF8D071D7F8C5
:100E900000C01CF00C0CE646BEF1000F06D0BEF1FF
:100EA000040F07D0BEF1080F08D037E0DFF8B821F3
:100EB0000A6036E0DFF8B4210A6032E0DFF8A0E132
:100EC000DEF80020C2F380521000DEF8002012F09D
:100ED0003F02160000280BD0DFF89021B2FBF6F895
:100EE000DEF80020C2F3881202FB08F844460AE04C
:100EF000DFF87421B2FBF6F8DEF80020C2F38812A6
:100F000002FB08F84446DEF80020C2F30142521CFE
:100F100052001500B4FBF5F20A6002E0DFF8482148
:100F20000A60D7F8008018F0F0085FEA1818DFF8B8
:100F300040A11AF80820D1F800E03EFA02FEC1F8FC
:100F400004E0D7F8009019F4E0595FEA99291AF8FB
:100F500009E0D1F804B03BFA0EFBC1F808B03F68D5
:100F600017F460477F0B1AF807A0D1F804B03BFADA
:100F70000AFBC1F80CB0BDE8F08F10B4002210F4E9
:100F80004071B1F5407F0AD1DFF8D030196831F4F3
:100F9000F811DFF8E040044021430A001A60DFF84E
:100FA000C4301C680105090D0C431C6010BC70475F
:100FB0000100C9B2DFF8C020116070470A00D2B248
:100FC000002A04D02D4A13680343136003E02B4A20
:100FD00013688343136070470A00D2B2002A04D01A
:100FE000274A13680343136003E0254A13688343C9
:100FF000136070470A00D2B2002A04D0214A136855
:101000000343136003E01F4A136883431360704770
:1010100030B401000020002300250A00D2B252099A
:10102000D2B2012A02D10C48046806E0022A02D199
:101030000C48046801E0144804680B00DBB213F0AC
:101040001F032000D840C00701D5012000E0002088
:10105000C0B230BC7047000000380240083802407F
:1010600004380240703802400024F400001BB7002E
:1010700000000020FFFCFF0F3C0E474230380240CA
:10108000403802402038024074380240F0B5002257
:10109000002300240025102D5CD2012616FA05F24B
:1010A00013000A681A4014009C4251D103270268B9
:1010B000AC465FFA8CFC5FEA4C0C17FA0CFC32EA87
:1010C0000C020260D0F800C091F804E02A00D2B20D
:1010D00052001EFA02FE5EEA0C0CC0F800C00A794B
:1010E000012A02D00A79022A22D18268AC465FFA2C
:1010F0008CFC5FEA4C0C17FA0CFC32EA0C028260A2
:10110000D0F808C091F805E02A00D2B252001EFAC9
:1011100002FE5EEA0C0CC0F808C04268AE4032EA3B
:101120000606466042688E79AE40B6B232434260EF
:10113000C6682A00D2B25200974036EA0707C76055
:10114000C668CF792A00D2B2520097403E43C660AB
:101150006D1CA0E7F0BD01837047F0B500240025A9
:101160001300DBB211F00706F6B2B60013FA06F66A
:101170000B009BB2DB1000EB83070B009BB2DB1074
:1011800000EB8303D3F820C05FF00F0E11F00703CC
:10119000DBB29B001EFA03FE3CEA0E0CC7F820C02F
:1011A0000B009BB2DB1000EB83031B6A33430F0081
:1011B000BFB2FF1000EB87073B62F0BD2DE9F04F97
:1011C00085B004000D00002600275FF000085FF0E6
:1011D0000009A8890028218A31F44051E888014398
:1011E000009100982082B4F80CA02C4810EA0A0A5A
:1011F000A988288901436889014351EA0A0AA4F8A9
:101200000CA0B4F814B03BF4407BA88950EA0B0B57
:10121000A4F814B001A8FFF72FFE1E48844202D0A4
:101220001D48844201D1049900E00399A08900047B
:1012300007D5192000FB01F02A685200B0FBF2F23A
:1012400006E0192000FB01F02A689200B0FBF2F2E0
:101250006420B2FBF0F6360133001B09642000FB6A
:101260001323A089000408D5D80032306427B0FBCE
:10127000F7F010F00700064307E01801323064274A
:10128000B0FBF7F010F00F000643268105B0BDE873
:10129000F08F00000010014000140140F3E9FFFF4F
:1012A0000A00D2B2002A04D0828952F4005282810C
:1012B00004E083894DF6FF72134083817047CA05AD
:1012C000D20D828070478088C005C00D70472DE91F
:1012D000F0410023002500275FF0000E0C0040F6CF
:1012E0006A16A4B2B44280460C00E4B26409E4B2C7
:1012F0000E00B6B216F01F065FF0010C1CFA06FCD9
:10130000012C02D118F10C0806E0022C02D118F1D0
:10131000100801E018F114081300DBB2002B06D00E
:10132000D8F800305CEA0303C8F8003005E0D8F8CC
:10133000003033EA0C03C8F80030BDE8F081020049
:101340000023080080B2B0F5007F1088084201D069
:10135000012000E00020C0B27047F0B40400002774
:101360000020002200260B0040F66A159BB2AB421B
:101370000D00EDB26D09EDB20B009BB213F01F032F
:101380005FF0010C1CFA03F3012D02D1A089034088
:1013900006E0022D02D1208A034001E0A08A03402A
:1013A0000A0092B2120A92B21CFA02F2208802409B
:1013B000002B03D0002A01D0012000E00020C0B2A1
:1013C000F0BC704770B4002200240B0040F66A1590
:1013D0009BB2AB420B009BB21B0A01259D402E0025
:1013E000B6B2F643068070BC7047000010B400220D
:1013F0000488264B98420ED02A4A90420BD0B0F176
:10140000804F08D0224A904205D0224A904202D012
:10141000214A904204D14FF68F7214404A881443F7
:101420001E4A904207D01E4A904204D04FF6FF4217
:1014300014400A89144304804A68C2620A880285FB
:10144000984202D0174A904201D18A7A028601223C
:10145000828210BC70475FF0FF3141600021018043
:1014600000210181002141800021817270470A0022
:10147000D2B2002A04D0028852F00102028004E0B5
:1014800003884FF6FE72134003807047000001404E
:101490000004004000080040000C00400010004024
:1014A00000140040000401401300DBB2002B03D005
:1014B00083890B43838102E083898B438381704757
:1014C0000A0092B2D24302827047F0B402000023B5
:1014D00000260024178A0F4095890D40380080B2FD
:1014E000002805D0280080B2002801D0012000E0AB
:1014F0000020C0B2F0BC70470A0092B2D243028210
:10150000704702894FF6F8710A4002817047000067
:101510000100C9B2014A11607047000020000E426C
:1015200081B00020009000220021DFF87C010368D8
:101530005B0616D45FF0FF330360036813F04003CB
:101540001900009B5B1C0093009BB3F5803F01D00A
:101550000029F2D00068400601D5012002E00020F9
:1015600000E00120C0B201B07047DFF83C01016823
:1015700031F080010160704718B400200090002312
:101580000021DFF81C21CA20106053201060DFF812
:101590001801046834F0A0040460046814F0200406
:1015A0002100009C641C0094009CB4F5003F01D015
:1015B0000029F2D00068800601D5012000E000205B
:1015C000FF231360C0B212BC70472DE9F84304003A
:1015D0000D005FF000080026002C07D1DFF8CC00DA
:1015E0000068400601D40020E8700BE0DFF8BC0082
:1015F0000068400604D5287800F068F8804601E0CD
:101600000020E870002C0AD028786F783F0257EA53
:101610000047A8780743E87857EA004715E028789C
:1016200000F048F88146687800F044F80700A87890
:1016300000F040F85FFA89F9FFB23F0257EA094724
:10164000C0B20743E87857EA0047DFF85480CA2061
:10165000C8F800005320C8F80000FFF761FF002819
:1016600001D1002015E0DFF848003840DFF83410E1
:101670000860FFF77AFFDFF834000068800607D4BF
:10168000FFF77AFF002801D1002002E0012000E0EE
:101690000120FF21C8F80010C0B2BDE8F2830000AD
:1016A00024280040002800400C2800400828004062
:1016B0007F7F7F0000210200D2B20A2A02DB491C90
:1016C0000A38F8E750EA0110C0B270470021020062
:1016D000D2B212090A2312FB03F210F00F00801895
:1016E000C0B27047FEE758490868002802D0086871
:1016F000401E0860554801780A2903DA0178491C20
:10170000017001E000210170704738B50121504897
:10171000FFF721FD4F4C40F2255529002000FFF72F
:101720001CFE00281BD029002000FFF74BFE20885C
:1017300010F0030F10D12000FFF7C5FD05002800B1
:10174000C0B2FEF783FF00204349086001215FF02B
:101750008040FFF78CFE02E02000FFF7B4FD40F26E
:1017600025312000FFF7F9FD012802D12000FFF705
:10177000AAFD40F2266529002000FFF7EEFD0028B3
:1017800022D029002000FFF71DFE344908880028D8
:1017900015D00888401E0880314D2888411C2980BA
:1017A000304980B2095C89B22000FFF788FD2888A3
:1017B00042F6F821884207D10020288004E0002268
:1017C00029002000FFF783FD31BD80B501215FF0C6
:1017D0008040FFF775FE00202349088000215FF05C
:1017E0008040FFF744FE00201B49086001BD80B522
:1017F00001211E48FFF764FE1D480168491C016075
:101800001C490868002802D00868401E086001BD15
:1018100010B5194C01212000FFF757FE002805D014
:10182000FEF7CEFF01212000FFF766FE10BD10B5C8
:10183000124C01212000FFF748FE002803D00121AF
:101840002000FFF759FE10BD14F3002035F30020EF
:1018500000100240004400402400004032F3002009
:1018600030F30020102B00202CF30020000C00404F
:1018700018F3002010F30020001000400014004076
:1018800030B450F8041B79B1026843680244083050
:10189000DC0744BFA9F10104E31852F8045B43F8E4
:1018A000045B091FF9D1ECE730BC704710B507495C
:1018B00079441831064C7C44163404E00A68081D4B
:1018C000114488470146A142F8D110BD2C00000008
:1018D0004C0000004EF68851CEF20001086840F43A
:1018E00070000860BFF34F8FBFF36F8F4FF0007031
:1018F000E1EE100A704700004BEEFFFF20F30000FE
:10190000180000200000000079FFFFFF1800000011
:10191000C4010000000000200000000000F00DF8ED
:10192000002801D0FFF7C2FFAFF300800020AFF323
:101930000080FEF723FF00F002F80120704700F05E
:1019400001B800000746384600F002F8FBE7000047
:1019500080B5AFF30080024A11001820ABBEFBE750
:10196000260002000148804701480047B50C0008E6
:1019700075190008AFF30080FFF7ACFFFFF7CEFF4B
:1019800000000000FFF7FEBFFFF7FEBFFFF7FEBF3E
:10199000FFF7FEBFFFF7FEBFFFF7FEBFFFF7FEBF7B
:1019A000FFF7FEBFFFF7FEBFFFF7FEBFFFF7FEBF6B
:1019B000FFF7FEBFFFF7FEBFFFF7FEBFFFF7FEBF5B
:1019C000FFF7FEBFFFF7FEBFFFF7FEBFFFF7FEBF4B
:1019D000FFF7FEBFFFF7FEBFFFF7FEBFFFF7FEBF3B
:1019E000FFF7FEBFFFF7FEBFFFF7FEBFFFF7FEBF2B
:1019F000FFF7FEBFFFF7FEBFFFF7FEBFFFF7FEBF1B
:101A0000FFF7FEBFFFF7FEBFFFF7FEBFFFF7FEBF0A
:101A1000FFF7FEBFFFF7FEBFFFF7FEBFFFF7FEBFFA
:101A2000FFF7FEBFFFF7FEBFFFF7FEBFFFF7FEBFEA
:101A3000FFF7FEBFFFF7FEBFFFF7FEBFFFF7FEBFDA
:101A4000FFF7FEBFFFF7FEBFFFF7FEBFFFF7FEBFCA
:101A5000FFF7FEBFFFF7FEBFFFF7FEBFFFF7FEBFBA
:101A6000FFF7FEBFFFF7FEBFFFF7FEBFFFF7FEBFAA
:101A7000FFF7FEBFFFF7FEBFFFF7FEBFFFF7FEBF9A
:101A8000FFF7FEBFFFF7FEBFFFF7FEBFFFF7FEBF8A
:101A9000FFF7FEBFFFF7FEBFFFF7FEBFFFF7FEBF7A
:101AA000FFF7FEBFFFF7FEBFFFF7FEBFFFF7FEBF6A
:101AB000FFF7FEBFFFF7FEBFFFF7FEBFFFF7FEBF5A
:101AC000FFF7FEBFFFF7FEBFFFF7FEBFFFF7FEBF4A
:101AD000FFF7FEBF0000000001020304010203043F
:0C1AE00006070809FFFFFFFF01000000DF
:040000050800197561
:00000001FF
