:020000040800F2
:1000000000200010F91700081918000871150008E1
:100010001D1800082118000825180008000000001D
:100020000000000000000000000000002918000887
:100030002D18000800000000311800087315000892
:1000400035180008391800083D1800084118000844
:1000500045180008491800084D18000851180008F4
:1000600055180008591800085D18000861180008A4
:1000700065180008691800086D1800087118000854
:1000800075180008791800087D1800088118000804
:1000900085180008891800088D18000891180008B4
:1000A00095180008991800089D180008A118000864
:1000B00057160008A5180008A9180008AD18000870
:1000C000B1180008B5180008B9180008BD180008D4
:1000D000C1180008C518000897150008C9180008BD
:1000E000CD180008D1180008D5180008D918000844
:1000F000DD180008E1180008E5180008E9180008F4
:10010000ED180008F11800087B160008F518000823
:10011000F9180008FD1800089D160008C31600080D
:100120000119000805190008091900080D1900082F
:100130001119000815190008191900081D190008DF
:100140002119000825190008291900082D1900088F
:100150003119000835190008391900083D1900083F
:100160004119000845190008491900084D190008EF
:100170005119000855190008591900085D1900089F
:10018000611900086519000810B5BF4CBF48017817
:1001900089B2200000F002F9002811D02488BC4860
:1001A000210089B20268914205D0210089B2016024
:1001B00000F007F804E0B7480188B74800F0CCF930
:1001C00010BD2DE9F84FB048057946794FF480719C
:1001D000807901FB0606AF4F002038802800C0B2AE
:1001E000102800F0A580112800F0A780122800F048
:1001F000A980412806D050280AD0702836D08128FE
:1002000029D0A4E040F20111412000F006F99EE05F
:10021000012000F0FEF900280ED1022000F0F9F9CB
:10022000002809D1032000F0F4F9002804D10420AB
:1002300000F0EFF9002805D04FF6FF71502000F0D4
:10024000ECF807E042F21071502000F0E6F80020D0
:10025000924908807BE09248068040F2011181209B
:1002600000F0DBF801218F4800F053FA00F0D1F9DB
:10027000002805D04FF6FF71702000F0CEF856E050
:100280008549702008718848028892B2120A4A7122
:1002900000888871DFF8048242F21074B8F8000018
:1002A000201A320092B2904226DBB1461FFA89F939
:1002B0007E48B8F8002000EB020A11F1070B4A460D
:1002C0005146584600F076FA3988F01C41183980BA
:1002D000B8F800003018A8F80000B8F80000A042F4
:1002E00023D10020A8F80000012000F095F9012199
:1002F0006C4800F00EFA18E0B8F80000241A6B48B9
:10030000B8F8002000EB020911F1070A2200494663
:10031000504600F04FFA3988F01C4118398000200F
:10032000A8F80000012000F077F900F012F80EE0C4
:1003300040F20111102000F070F840F2011110207D
:1003400000F06BF840F20111122000F066F8BDE8F1
:10035000F18F2DE9FC41504C4D48006820804D4DF7
:10036000288860802888001D28802988200000F0C7
:1003700034F8ADF8000002266F46288804EB000828
:1003800032003900404600F015FA2888801C288089
:100390002988200000F0E0F8BDE8F38138B50400BA
:1003A0000D00280080B2032801DA002014E0A91E05
:1003B00089B2200000F011F8ADF8000002222800F8
:1003C00080B22044811E684600F048FA002801D11E
:1003D000012000E00020C0B232BD30B403004FF66F
:1003E000FF7000240A0092B2944213DA1A5D504062
:1003F0000022082A0CDAC50706D580B205004AF2A9
:10040000010090EA550001E080B24008521CF0E77C
:10041000641CE7E780B230BC704738B504000D00BB
:100420001D480471290089B2090A41718571194872
:100430000188C91C0180FFF78CFF31BD01201C49D8
:100440000870704700201A490870704718480078F3
:10045000704713480088C0B270471349088070473E
:100460002DE9F04104000D002E00F6B22700DFF860
:10047000188032003900404600F09CF9FFF7DEFF9B
:1004800002480570BDE8F0817C7D0020077E0020D9
:1004900010000020FA7D002018000020F47D0020CC
:1004A000F67D002000100040F87D00200856002056
:1004B000067E002038B504002000C0B2C02806D057
:1004C000DB2813D0DC2815D0DD2822D030E01F4DEA
:1004D0002888002806D02988C9B21D48FFF7C0FF28
:1004E0000020288000201B4908702EE001201949B7
:1004F00008702AE01749087801280AD11348C02259
:10050000134B05885A550288521C0280002008703F
:100510001BE01049087801280AD10C48DB220C4B5B
:1005200005885A550288521C0280002008700CE091
:1005300006480188642905DA054902888C54018837
:10054000491C018000200349087031BDF27D002064
:10055000187D0020047E0020F8B506000C00C020A5
:1005600000F034FA0025200080B2854219DA37788D
:10057000761C3800C0B2C02804D1DB2000F026FA77
:10058000DC2007003800C0B2DB2804D1DB2000F0FB
:100590001DFADD2007003800C0B200F017FA6D1C0C
:1005A000E1E7C02000F012FAF1BD30B4002513E0FD
:1005B00050F8042BD30744BFA9F101039A18091F6F
:1005C000042942F8045BFAD213468C0744BF158015
:1005D0009B1CC90748BF1D7050F8041B0029E7D1B8
:1005E00030BC704780B5002000F05DFA00F03AFBA7
:1005F00000F0CAFB00F0DFFA00F089F900F0F3FB2D
:10060000FFF724FF0028F9D0FFF7BEFDFFF71AFF20
:10061000F4E71C480078704701201A4908707047B9
:10062000002018490870704770B50024164D2888BE
:10063000002805D1FFF70DFF2880288800281FD04B
:100640000126092E10DA288830420BD0142000FB36
:1006500006F004002888B0432880300080B2FFF7FD
:10066000FCFE01E07600ECE7002042F210718842C7
:1006700004DA06490C54641C401CF6E7FFF7D0FF6F
:1006800070BD000014000020F07D002008560020FE
:1006900010B400220488264B98420ED02A4A904279
:1006A0000BD0B0F1804F08D0224A904205D0224AA8
:1006B000904202D0214A904204D14FF68F721440EA
:1006C0004A8814431E4A904207D01E4A904204D0E2
:1006D0004FF6FF4214400A89144304804A68C262FC
:1006E0000A880285984202D0174A904201D18A7A3C
:1006F00002860122828210BC70475FF0FF314160A8
:1007000000210180002101810021418000218172AE
:1007100070470A00D2B2002A04D0028852F00102C7
:10072000028004E003884FF6FE7213400380704796
:10073000000001400004004000080040000C0040A0
:100740000010004000140040000401401300DBB220
:10075000002B03D083890B43838102E083898B4381
:10076000838170470A0092B2D24302827047F0B48C
:100770000200002300260024178A0F4095890D40AF
:10078000380080B2002805D0280080B2002801D0AF
:10079000012000E00020C0B2F0BC70470A0092B215
:1007A000D2430282704702894FF6F8710A400281F3
:1007B0007047000062B38B0708D0521E11F8013B4E
:1007C00000F8013B00F024808B07F6D1830740F04E
:1007D000208000BF103A07D330B4B1E83810103A87
:1007E000A0E83810F9D230BC530724BFB1E8081094
:1007F000A0E8081044BF51F8043B40F8043BD2077E
:1008000024BF31F8022B20F8022B44BF0B78037071
:100810007047121F17D35B0009D151F8043B20F831
:10082000023B1B0C121F20F8023BF6D20BE051F8E2
:10083000043B00F8013B1B0A20F8023B1B0C121F73
:1008400000F8013BF3D238BF121D521E24BF11F82D
:10085000013B00F8013BF8D870470000030000207E
:1008600013F0030F09D0521E22BF13F8010B11F829
:1008700001CBB0EB0C00F3D0704711F0030F14D193
:10088000121F22BF53F8040B51F804CB6045F7D078
:10089000121D0AD200BA9CFA8CFCB0EB0C0038BFD7
:1008A0006FF0000088BF01207047521E22BF13F86E
:1008B000010B11F801CBB0EB0C00F6D0521C08BFB5
:1008C00010467047010049B2002909D4012210F0F6
:1008D0001F018A40594903005BB25B0941F823209C
:1008E000704710B4020052B2002A05D40A01544BDA
:1008F000040064B21A5508E00A01524B040064B2C5
:1009000014F00F04234403F8042C10BC704710B5F6
:1009100086B00121082000F029FB01215FF400309E
:1009200000F032FB2020009002208DF8040000200F
:100930008DF8060001208DF8070002208DF80500D3
:10094000414C6946200000F079FB402000900020D7
:100950008DF8070002208DF804006946200000F0A1
:100960006DFB07220521200000F0CFFB07220621A6
:10097000200000F0CAFB5FF4E12002900020ADF8F7
:1009800014000C20ADF812000020ADF8100000207B
:10099000ADF80E000020ADF80C002C4C02A9200090
:1009A00000F0E4FB01212620FFF79BFF2620FFF744
:1009B00089FF012240F22551200000F060FC012156
:1009C000200000F045FC002006B010BD2DE9F041EC
:1009D000040042F6F8251E4E3088A842F9D01B4F7D
:1009E00040F2266800224146380000F048FC30887A
:1009F000002805D18021380000F079FC00280FD1B3
:100A00001448154902888C540188491C01800188CA
:100A1000A94201D1002101803088401C308005E0CE
:100A20002100C9B289B2380000F021FC0122414600
:100A3000380000F024FCBDE8F081000000E100E097
:100A400000E400E018ED00E0000C0240004400402B
:100A5000027E0020FE7D0020102B0020010049B204
:100A6000002909D4012210F01F018A4074490300B3
:100A70005BB25B0941F82320704710B4020052B208
:100A8000002A05D40A016F4B040064B21A5508E02D
:100A90000A016D4B040064B214F00F04234403F800
:100AA000042C10BC704738B58AB004000020674998
:100AB00008600121092000F067FA0021092000F0F8
:100AC00071FA06A800F0B0F95FF08040FFF76BFE06
:100AD0002920ADF800000020ADF8020044F62060A7
:100AE00001900020ADF8080000208DF80A0069464A
:100AF0005FF08040FFF7CCFD012201215FF08040D4
:100B0000FFF724FE01215FF08040FFF72BFE01215B
:100B10001C20FFF7B2FF1C20FFF7A0FF06A800F083
:100B200083F94B4D2800FFF73EFE5320ADF800003F
:100B30000020ADF80200642001900020ADF808000C
:100B400000208DF80A0069462800FFF7A1FD012268
:100B500001212800FFF7FAFD01212800FFF702FE1E
:100B600001213220FFF789FF3220FFF777FF0121B3
:100B70002800FFF7CEFD0121102000F005FA03A8A0
:100B8000FFF7BBFD4AF20F40ADF80C00C8200490FF
:100B9000304D03A92800FFF77BFD01220121280029
:100BA000FFF7D4FD01212800FFF7B3FD3620FFF742
:100BB00055FF0BB030BD1CB52748006800900120E0
:100BC00000F02AF801215FF0805000F0DDF90120EB
:100BD00000F0E4FB012000F013F90024412000F0B4
:100BE000EFF9002808D11D480068C003F6D5641C41
:100BF000072CF3DB01200EE04FF4807000F095F934
:100C0000012000F0ADF900F0FDFB6946002000F086
:100C100022FC0021002016BD18B585B0040001A8F3
:100C200000F002F90D48016800910299C908B1FB72
:100C3000F4F10B4A11600121016006B010BD000003
:100C400000E100E000E400E018ED00E0EC7D0020B1
:100C5000000C0040001000401418000810E000E0F4
:100C600014E000E080B53C48016851F47001016077
:100C70003A49086850F0010008600020384A1060C6
:100C80000A68384802400A603748384A10600868E5
:100C900030F48020086000203549086000F005F835
:100CA0005FF000603349086001BD82B00020019010
:100CB000002000902949086850F4803008600868D6
:100CC00010F4003000900198401C0190009800281A
:100CD00003D10198B0F5A04FF1D10868800302D587
:100CE0000120009001E000200090009801282FD101
:100CF0002148026852F0805202602048026852F493
:100D000040420260164802680260026852F40042E3
:100D10000260026852F4A0520260194A134B1A6032
:100D20000A6852F080720A600A689201FCD540F2AB
:100D30000571144A11600168890889000160016821
:100D400051F002010160016811F00C010829FAD18B
:100D500002B070470000000088ED00E0003802405B
:100D600008380240FFFFF6FE10300024043802402D
:100D70000C38024008ED00E04038024000700040AE
:100D80000C544007003C0240E0B50121042000F073
:100D9000EDF84FF40150009001208DF80400002080
:100DA0008DF8060001208DF8070002208DF805005F
:100DB0006946104800F042F90121082000F0D6F8F9
:100DC0001F20009001208DF8040000208DF80600FF
:100DD00001208DF8070002208DF8050069460648BD
:100DE00000F02CF907BD0548016891F4005101603D
:100DF0007047000000080240000C02401408024046
:100E0000DFF8101200220A7000220A700200D2B22B
:100E1000012A02D0042A03D005E001220A7002E070
:100E200005220A70FFE770472DE9F04F010000220C
:100E300000230024022500200226DFF8D071D7F815
:100E400000C01CF00C0CE646BEF1000F06D0BEF14F
:100E5000040F07D0BEF1080F08D037E0DFF8B82143
:100E60000A6036E0DFF8B4210A6032E0DFF8A0E182
:100E7000DEF80020C2F380521000DEF8002012F0ED
:100E80003F02160000280BD0DFF89021B2FBF6F8E5
:100E9000DEF80020C2F3881202FB08F844460AE09C
:100EA000DFF87421B2FBF6F8DEF80020C2F38812F6
:100EB00002FB08F84446DEF80020C2F30142521C4F
:100EC00052001500B4FBF5F20A6002E0DFF8482199
:100ED0000A60D7F8008018F0F0085FEA1818DFF809
:100EE00040A11AF80820D1F800E03EFA02FEC1F84D
:100EF00004E0D7F8009019F4E0595FEA99291AF84C
:100F000009E0D1F804B03BFA0EFBC1F808B03F6825
:100F100017F460477F0B1AF807A0D1F804B03BFA2A
:100F20000AFBC1F80CB0BDE8F08F10B4002210F439
:100F30004071B1F5407F0AD1DFF8D030196831F443
:100F4000F811DFF8E040044021430A001A60DFF89E
:100F5000C4301C680105090D0C431C6010BC7047AF
:100F60000100C9B2DFF8C020116070470A00D2B298
:100F7000002A04D02D4A13680343136003E02B4A70
:100F800013688343136070470A00D2B2002A04D06A
:100F9000274A13680343136003E0254A1368834319
:100FA000136070470A00D2B2002A04D0214A1368A5
:100FB0000343136003E01F4A1368834313607047C1
:100FC00030B401000020002300250A00D2B25209EB
:100FD000D2B2012A02D10C48046806E0022A02D1EA
:100FE0000C48046801E0144804680B00DBB213F0FD
:100FF0001F032000D840C00701D5012000E00020D9
:10100000C0B230BC704700000038024008380240CF
:1010100004380240703802400024F400001BB7007E
:1010200000000020FFFCFF0F3C0E4742303802401A
:10103000403802402038024074380240F0B50022A7
:10104000002300240025102D5CD2012616FA05F29B
:1010500013000A681A4014009C4251D10327026809
:10106000AC465FFA8CFC5FEA4C0C17FA0CFC32EAD7
:101070000C020260D0F800C091F804E02A00D2B25D
:1010800052001EFA02FE5EEA0C0CC0F800C00A799B
:10109000012A02D00A79022A22D18268AC465FFA7C
:1010A0008CFC5FEA4C0C17FA0CFC32EA0C028260F2
:1010B000D0F808C091F805E02A00D2B252001EFA1A
:1010C00002FE5EEA0C0CC0F808C04268AE4032EA8C
:1010D0000606466042688E79AE40B6B23243426040
:1010E000C6682A00D2B25200974036EA0707C760A6
:1010F000C668CF792A00D2B2520097403E43C660FC
:101100006D1CA0E7F0BD01837047F0B500240025F9
:101110001300DBB211F00706F6B2B60013FA06F6BA
:101120000B009BB2DB1000EB83070B009BB2DB10C4
:1011300000EB8303D3F820C05FF00F0E11F007031C
:10114000DBB29B001EFA03FE3CEA0E0CC7F820C07F
:101150000B009BB2DB1000EB83031B6A33430F00D1
:10116000BFB2FF1000EB87073B62F0BD2DE9F04FE7
:1011700085B004000D00002600275FF000085FF036
:101180000009A8890028218A31F44051E8880143E8
:10119000009100982082B4F80CA02C4810EA0A0AAA
:1011A000A988288901436889014351EA0A0AA4F8F9
:1011B0000CA0B4F814B03BF4407BA88950EA0B0BA8
:1011C000A4F814B001A8FFF72FFE1E48844202D0F5
:1011D0001D48844201D1049900E00399A0890004CC
:1011E00007D5192000FB01F02A685200B0FBF2F28B
:1011F00006E0192000FB01F02A689200B0FBF2F231
:101200006420B2FBF0F6360133001B09642000FBBA
:101210001323A089000408D5D80032306427B0FB1E
:10122000F7F010F00700064307E01801323064279A
:10123000B0FBF7F010F00F000643268105B0BDE8C3
:10124000F08F00000010014000140140F3E9FFFF9F
:101250000A00D2B2002A04D0828952F4005282815C
:1012600004E083894DF6FF72134083817047CA05FD
:10127000D20D828070478088C005C00D70472DE96F
:10128000F0410023002500275FF0000E0C0040F61F
:101290006A16A4B2B44280460C00E4B26409E4B217
:1012A0000E00B6B216F01F065FF0010C1CFA06FC29
:1012B000012C02D118F10C0806E0022C02D118F121
:1012C000100801E018F114081300DBB2002B06D05F
:1012D000D8F800305CEA0303C8F8003005E0D8F81D
:1012E000003033EA0C03C8F80030BDE8F08102009A
:1012F0000023080080B2B0F5007F1088084201D0BA
:10130000012000E00020C0B27047F0B404000027C4
:101310000020002200260B0040F66A159BB2AB426B
:101320000D00EDB26D09EDB20B009BB213F01F037F
:101330005FF0010C1CFA03F3012D02D1A0890340D8
:1013400006E0022D02D1208A034001E0A08A03407A
:101350000A0092B2120A92B21CFA02F220880240EB
:10136000002B03D0002A01D0012000E00020C0B2F1
:10137000F0BC704770B4002200240B0040F66A15E0
:101380009BB2AB420B009BB21B0A01259D402E0075
:10139000B6B2F643068070BC704700000100C9B2C7
:1013A000014A11607047000020000E4281B0002009
:1013B000009000220021DFF87C0103685B0616D450
:1013C0005FF0FF330360036813F040031900009BD4
:1013D0005B1C0093009BB3F5803F01D00029F2D045
:1013E0000068400601D5012002E0002000E0012055
:1013F000C0B201B07047DFF83C01016831F08001F4
:101400000160704718B40020009000230021DFF82D
:101410001C21CA20106053201060DFF818010468F6
:1014200034F0A0040460046814F020042100009C3F
:10143000641C0094009CB4F5003F01D00029F2D058
:101440000068800601D5012000E00020FF23136022
:10145000C0B212BC70472DE9F84304000D005FF0E4
:1014600000080026002C07D1DFF8CC0000684006F9
:1014700001D40020E8700BE0DFF8BC0000684006F3
:1014800004D5287800F068F8804601E00020E87074
:10149000002C0AD028786F783F0257EA0047A878D6
:1014A0000743E87857EA004715E0287800F048F845
:1014B0008146687800F044F80700A87800F040F80A
:1014C0005FFA89F9FFB23F0257EA0947C0B2074302
:1014D000E87857EA0047DFF85480CA20C8F80000CF
:1014E0005320C8F80000FFF761FF002801D1002059
:1014F00015E0DFF848003840DFF834100860FFF7E7
:101500007AFFDFF834000068800607D4FFF77AFF1F
:10151000002801D1002002E0012000E00120FF218D
:10152000C8F80010C0B2BDE8F283000024280040D3
:10153000002800400C280040082800407F7F7F00E2
:1015400000210200D2B20A2A02DB491C0A38F8E75D
:1015500050EA0110C0B2704700210200D2B2120955
:101560000A2312FB03F210F00F008018C0B270477C
:10157000FEE75A490868002802D00868401E086043
:10158000574801780A2903DA0178491C017001E003
:1015900000210170704738B501215248FFF7B3FDB3
:1015A000514C40F2255529002000FFF7AEFE0028DF
:1015B0001BD029002000FFF7DDFE208810F0030F6C
:1015C00010D12000FFF757FE05002800C0B2FEF73B
:1015D00071FF00204549086001215FF08040FFF75E
:1015E00098F802E02000FFF746FE40F22531200087
:1015F000FFF78BFE012802D12000FFF73CFE40F2EE
:10160000266529002000FFF780FE002822D029004F
:101610002000FFF7AFFE36490888002815D008885B
:10162000401E0880334D2888411C2980324980B2F1
:10163000095C89B22000FFF71AFE288842F6F821DB
:10164000884207D10020288004E0002229002000E1
:10165000FFF715FE31BD80B501215FF08040FFF737
:1016600081F800202549088000215FF08040FFF7C5
:1016700050F800201D49086001BD80B501212048B7
:10168000FFF770F81F480168491C01601E4908688F
:10169000002802D00868401E086001BD10B51B4C30
:1016A00001212000FFF763F8002809D0FEF7BCFFF6
:1016B00001212000FFF772F800212000FFF729F830
:1016C00010BD10B5124C01212000FFF750F8002882
:1016D00003D001212000FFF761F810BDE47D002058
:1016E000057E00200010024000440040240000401D
:1016F000027E0020007E0020102B0020FC7D0020B8
:10170000000C0040E87D0020E07D0020001000403B
:101710000014004030B450F8041B79B102684368EB
:1017200002440830DC0744BFA9F10104E31852F871
:10173000045B43F8045B091FF9D1ECE730BC704748
:1017400010B5074979441831064C7C44163404E03E
:101750000A68081D114488470146A142F8D110BD0E
:101760002C0000004C0000004EF68851CEF2000123
:10177000086840F470000860BFF34F8FBFF36F8FAD
:101780004FF00070E1EE100A704700001FEEFFFFFF
:10179000F07D0000180000200000000079FFFFFF2E
:1017A00018000000C401000000000020000000003C
:1017B00000F00DF8002801D0FFF7C2FFAFF3008062
:1017C0000020AFF30080FEF70DFF00F002F80120CB
:1017D000704700F001B800000746384600F002F8F4
:1017E000FBE7000080B5AFF30080024A110018202B
:1017F000ABBEFBE7260002000148804701480047D6
:10180000650C000809180008AFF30080FFF7ACFF73
:10181000FFF7CEFF00000000FFF7FEBFFFF7FEBF9F
:10182000FFF7FEBFFFF7FEBFFFF7FEBFFFF7FEBFEC
:10183000FFF7FEBFFFF7FEBFFFF7FEBFFFF7FEBFDC
:10184000FFF7FEBFFFF7FEBFFFF7FEBFFFF7FEBFCC
:10185000FFF7FEBFFFF7FEBFFFF7FEBFFFF7FEBFBC
:10186000FFF7FEBFFFF7FEBFFFF7FEBFFFF7FEBFAC
:10187000FFF7FEBFFFF7FEBFFFF7FEBFFFF7FEBF9C
:10188000FFF7FEBFFFF7FEBFFFF7FEBFFFF7FEBF8C
:10189000FFF7FEBFFFF7FEBFFFF7FEBFFFF7FEBF7C
:1018A000FFF7FEBFFFF7FEBFFFF7FEBFFFF7FEBF6C
:1018B000FFF7FEBFFFF7FEBFFFF7FEBFFFF7FEBF5C
:1018C000FFF7FEBFFFF7FEBFFFF7FEBFFFF7FEBF4C
:1018D000FFF7FEBFFFF7FEBFFFF7FEBFFFF7FEBF3C
:1018E000FFF7FEBFFFF7FEBFFFF7FEBFFFF7FEBF2C
:1018F000FFF7FEBFFFF7FEBFFFF7FEBFFFF7FEBF1C
:10190000FFF7FEBFFFF7FEBFFFF7FEBFFFF7FEBF0B
:10191000FFF7FEBFFFF7FEBFFFF7FEBFFFF7FEBFFB
:10192000FFF7FEBFFFF7FEBFFFF7FEBFFFF7FEBFEB
:10193000FFF7FEBFFFF7FEBFFFF7FEBFFFF7FEBFDB
:10194000FFF7FEBFFFF7FEBFFFF7FEBFFFF7FEBFCB
:10195000FFF7FEBFFFF7FEBFFFF7FEBFFFF7FEBFBB
:10196000FFF7FEBFFFF7FEBF000000000102030407
:101970000102030406070809FFFFFFFF0100000042
:0400000508001809CE
:00000001FF
